:020000040800F2
:10000000504500246D030008B72600081725000896
:10001000B52600089D0400086337000800000000B2
:10002000000000000000000000000000AD02000819
:100030009F04000800000000090300089D2E00082E
:100040008703000887030008870300088703000868
:100050008703000887030008870300088703000858
:100060008703000887030008870300088703000848
:100070008703000887030008870300088703000838
:100080008703000887030008870300088703000828
:100090008703000887030008870300088703000818
:1000A0008703000841300008870300088703000821
:1000B00087030008870300088703000887030008F8
:1000C00087030008870300088703000887030008E8
:1000D00087030008870300088703000887030008D8
:1000E000870300088703000800000000870300085A
:1000F00087030008870300088703000887030008B8
:1001000087030008870300088703000887030008A7
:100110008703000887030008870300088703000897
:100120008703000887030008870300088703000887
:100130008703000887030008870300088703000877
:1001400000000000000000000000000000000000AF
:100150008703000887030008870300088703000857
:100160008703000887030008870300088703000847
:100170008703000887030008870300088703000837
:100180008703000887030008870300088703000827
:100190008703000887030008870300088703000817
:1001A0008703000887030008870300088703000807
:1001B00087030008870300088703000887030008F7
:1001C00087030008870300088703000887030008E7
:1001D00087030008870300088703000887030008D7
:1001E00087030008870300088703000887030008C7
:1001F00087030008870300088703000887030008B7
:1002000087030008870300088703000887030008A6
:1002100087030008870300083530000887030008BB
:100220008703000887030008870300080000000018
:100230008703000887030008000000008703000808
:100240008703000887030008870300088703000866
:100250008703000887030008870300088703000856
:100260008703000887030008870300088703000846
:1002700087030008870300088703000800000000C8
:1002800087030008870300088703000800000000B8
:100290000000000087030008DFF80CD000F0ECF845
:1002A000004800479D3A0008504500242C4B19682F
:1002B0000868B0E8F04F80F30988BFF36F8F4FF004
:1002C000000080F3118870470000000008480068B3
:1002D000006880F308884FF0000080F3148862B64D
:1002E00061B6BFF34F8FBFF36F8F00DF00BF00BF5A
:1002F00008ED00E0DFF80C00016841F470010160D6
:10030000704700BF88ED00E0EFF30980BFF36F8F07
:10031000134B1A681EF0100F08BF20ED108A20E959
:10032000F04F106009B44FF0500080F31188BFF314
:100330004F8FBFF36F8F03F071FF4FF0000080F31A
:10034000118809BC19680868B0E8F04F1EF0100F5A
:1003500008BFB0EC108A80F30988BFF36F8F704735
:1003600024000024EFF30580704700000648804712
:1003700006480047FEE7FEE7FEE7FEE7FEE7FEE78A
:10038000FEE7FEE7FEE7FEE7592F000899020008A6
:100390002DE9F05F0546002092469B4688460646BA
:1003A000814640241BE0284641464746224600F04D
:1003B00053F853465A46C01A914110D31146184675
:1003C000224600F03AF82D1A67EB01084F46224604
:1003D0000120002100F031F817EB00094E41201EEA
:1003E000A4F10104DFDC484631462A464346BDE815
:1003F000F09F40EA01039B0703D009E008C9121FE0
:1004000008C0042AFAD203E011F8013B00F8013BCE
:10041000521EF9D27047D2B201E000F8012B491EFA
:10042000FBD270470022F6E710B513460A46044691
:100430001946FFF7F0FF204610BD202A04DB203AC2
:1004400000FA02F1002070479140C2F1200320FA27
:1004500003F3194390407047202A04DB203A21FA25
:1004600002F00021704721FA02F3D040C2F12002CD
:100470009140084319467047064C074D06E0E06876
:1004800040F0010394E8070098471034AC42F6D3DB
:10049000FFF706FF5C4600087C460008FEE7704751
:1004A00072B6FEE770B5044600F02AF90546601CF6
:1004B00002D004480078044400F022F9401BA04216
:1004C000FAD370BD180000242DE9F84F03247D4DA8
:1004D00000234FF001094FF0B04B4FF00F0AE9E055
:1004E00009FA03F73A4076D00E7906F00306012E9A
:1004F00001D0022E18D1D0F808C04FEA430ECE68C2
:1005000004FA0EF82CEA080C06FA0EF646EA0C0677
:100510008660D0F804C00E792CEA070CC6F30016EA
:100520009E4046EA0C0646600E79F643B6070BD0AD
:10053000C6684FEA43088F6804FA08FC26EA0C06EE
:1005400007FA08F73743C7600E7906F00306022E54
:1005500012D1DE080F694FEA437C00EB8606B646EF
:10056000366A4FEADC6C0AFA0CF807FA0CF726EA4E
:1005700008063743CEF820700F7906684FEA430823
:1005800007F0030704FA08FC07FA08F726EA0C0646
:10059000374307604E6816F4403F1CD04A4E376818
:1005A00047F00207376036689F0706F0020600969C
:1005B00023F0030606F1B046B6463F0FD6F80864AE
:1005C000DFF808810AFA07FC404526EA0C0603D149
:1005D0004FF0000C41E06CE0DFF8F4C0604502D160
:1005E0004FF0010C39E0DFF8ECC0604502D14FF06C
:1005F000020C32E0DFF8E0C0604502D14FF0030C9E
:100600002BE0DFF8D8C0604502D14FF0040C24E0A5
:10061000DFF8CCC0604502D14FF0050C1DE0DFF8DB
:10062000C4C0604502D14FF0060C16E0DFF8B8C038
:10063000604502D14FF0070C0FE0DFF8B0C0604515
:1006400002D14FF0080C08E0DFF8A4C0604502D1E9
:100650004FF0090C01E04FF00A0C0CFA07FC4CEAD1
:10066000060CCEF808C44F68DBF80060FF0226EAEB
:10067000020600D516435F46CBF80060D1F804C0EF
:10068000DBF804605FEA8C2C26EA020600D51643EC
:100690007E606E684F6826EA0206BF0300D51643E7
:1006A0006E602E684F6826EA0206FF0300D51643E7
:1006B0002E605B1C0A6832FA03F67FF411AFBDE8C6
:1006C000F88F000080000058F444025800000258DF
:1006D0000004025800080258000C0258001002588A
:1006E0000014025800180258001C0258002002583A
:1006F0000024025801480068000C70470010005C9C
:100700000148806870470000180000240248816892
:10071000027811448160704718000024032010B54E
:1007200000F0ACF801F048F80F4A1049146813685B
:10073000C4F3032203F00F038A5CC95C02F01F02BA
:1007400001F01F01D0400A4A20FA01F11160094965
:100750000860042000F010F808B1012010BD00F07E
:100760004DF8002010BD0000184402580046000853
:10077000140000241000002410B5102804468AB08C
:100780002AD200220146762000F058F8762000F0A8
:1007900047F8154804601548016841F4802101605C
:1007A000006808A900F480200990684600F090FFD6
:1007B00000F0F0FF0E49400000220E4CB0FBF1F1BA
:1007C0000D4840F2E7330460C0E90332491EC0E936
:1007D000011201F07BFB10B101200AB010BD0648E8
:1007E00001F0C4FBF9E700001C000024F0440258AB
:1007F00040420F000048014010040024074882B026
:10080000016841F002010160006800220F2100F040
:1008100002000090901E02B000F010B8F44402589C
:10082000002809DB410900F01F028900012001F1C5
:10083000E0219040C1F80001704700000E4BF0B479
:100840001B680D46C3F30223C3F10706042E00D92B
:100850000426191D072901D2002300E0DB1E012414
:1008600004FA06F19C40491E2940641E9940144038
:100870002143F0BC02F086BF0CED00E0064900F019
:10088000070210B54FF6FF040868044B204040EA09
:1008900002201843086010BD0CED00E00000FA05CE
:1008A000134970B50A68D243520705D5096801F0AB
:1008B0000701814213D118E00A6822F007020243BF
:1008C0000A60FFF71DFF0A4D4FF47A760446083D93
:1008D00007E000BFFFF714FF001BB04201D9012061
:1008E00070BD2868C0438004F4D4002070BD0000AF
:1008F0000C48025810B500F019FF05490968054A6F
:10090000C1F30211515C01F01F01C84010BD00008D
:100910002044025800460008494930B5484C0B1D98
:100920000A68143409681D68246802F00303C5F3DB
:100930000012C1F30531C4F3CC04002914FB02F208
:1009400000EE102AF8EE400A75D03F4A9FED3D1A9E
:10095000B7EE000A6BB1DFED3D1A012B01D0022B7F
:1009600064D002EE101A1168F8EE422A81EEA22A33
:1009700021E0334C283C23689B0612D5344B246875
:1009800001EE901A1168C4F3C104F8EE612AE34045
:1009900001EE903AC1F30801F8EE611A81EEA22A45
:1009A0000BE001EE901ADFED2B2A00BFF8EE611A82
:1009B000116882EEA12AC1F3080101EE901A1168B4
:1009C000F8EE611A40EE811A71EE800A62EE200A9A
:1009D000C1F3462101EE101AB8EE411A31EE001AA9
:1009E000C0EE811ABCEEE11A80ED001A1168C1F365
:1009F000064101EE101AB8EE411A31EE001AC0EEAF
:100A0000811ABCEEE11A80ED011A1168C1F306618A
:100A100001EE101AB8EE411A31EE000A80EE801A8B
:100A2000BCEEC10A80ED020A30BD04E001EE901A6E
:100A3000DFED092ABAE70021016041608160F3E738
:100A40002844025800000039384402580024744AEF
:100A50000090D0030024744C20BCBE4B494930B5F3
:100A6000484C0B1D0A681C3409681D68246802F094
:100A70000303C5F30022C1F30551C4F3CC040029DC
:100A800014FB02F200EE102AF8EE400A75D03F4A3D
:100A90009FED3D1AB7EE000A6BB1DFED3D1A012B59
:100AA00001D0022B64D002EE101A1168F8EE422A2F
:100AB00081EEA22A21E0334C283C23689B0612D504
:100AC000344B246801EE901A1168C4F3C104F8EEA7
:100AD000612AE34001EE903AC1F30801F8EE611A91
:100AE00081EEA22A0BE001EE901ADFED2B2A00BF67
:100AF000F8EE611A116882EEA12AC1F3080101EE35
:100B0000901A1168F8EE611A40EE811A71EE800AAF
:100B100062EE200AC1F3462101EE101AB8EE411A26
:100B200031EE001AC0EE811ABCEEE11A80ED001A17
:100B30001168C1F3064101EE101AB8EE411A31EE08
:100B4000001AC0EE811ABCEEE11A80ED011A11689C
:100B5000C1F3066101EE101AB8EE411A31EE000A37
:100B600080EE801ABCEEC10A80ED020A30BD04E0BE
:100B700001EE901ADFED092ABAE700210160416019
:100B80008160F3E7284402580000003940440258CD
:100B90000024744A0090D0030024744C20BCBE4B47
:100BA0002DE9FC5F044650F8241B002500902E46DA
:100BB0000801FE4FDFF8F8831DD5606E50B1B0F527
:100BC000801F0CD0B0F5001F0ED0B0F5401F1DD017
:100BD00001250FE0386840F40030386016E002214B
:100BE000201D01F069FD03E00098022101F0F4FDF1
:100BF00005000BD02E462088C00523D5606D052842
:100C00001ED2DFE800F00C11161B1B00626ED8F834
:100C1000001021F440111143C8F80010EBE73868C8
:100C200040F40030386009E00021201D01F044FD4F
:100C300003E00098002101F0CFFD05466DB100E012
:100C400001252E462088800528D5A06D80281ED03D
:100C50000CDC90B140280ED114E0626DD8F8001081
:100C600021F007011143C8F80010EBE7C02813D0AA
:100C7000B0F5807F10D001250FE0386840F40030D7
:100C8000386009E00021201D01F016FD03E0009806
:100C9000002101F0A1FD054695B12E462088DFF820
:100CA0001093400509F108092CD5D4F8A400B0F53B
:100CB000800F20D00DDCA0B1B0F5001F0FD115E0E2
:100CC000A26DD8F8001021F4E0711143C8F80010AB
:100CD000E4E7B0F5C00F13D0B0F5000F10D0012538
:100CE0000FE0386840F40030386009E00021201D32
:100CF00001F0E2FC03E00098002101F06DFD0546E3
:100D000075B12E46208800052DD5D4F8A800B0F185
:100D1000007F21D00EDCA8B1B0F1807F10D116E0A9
:100D2000D4F8A420D9F8001021F460011143C9F8C7
:100D30000010E7E7B0F1407F13D0B0F1806F10D022
:100D400001250FE0386840F40030386009E00021E8
:100D5000201D01F0B1FC03E00098002101F03CFDF2
:100D600005466DB12E46206880011FD5A06CD8B114
:100D700010280FD0202812D0302815D0012514E0DB
:100D8000D4F8A820D9F8001021F0E0611143C9F887
:100D90000010E8E7386840F40030386004E00221D1
:100DA000201D01F089FC05466DB12E462088C00447
:100DB0002BD5E06DB0F5005F20D00DDCA0B1B0F513
:100DC000805F0FD115E07A48A26C001F016821F006
:100DD000300111430160E9E7B0F5405F13D0B0F591
:100DE000804F10D001250FE0386840F400303860A3
:100DF00009E00021201D01F05FFC03E000980021C4
:100E000001F0EAFC054685B12E462088800429D5EC
:100E1000206EB0F5403F23D010DC08B3B0F5803F22
:100E200014D0B0F5003F0FD115E0E26DD8F80010F6
:100E300021F4E0411143C8F80010E6E7B0F5802F37
:100E40000ED0B0F5A02F0BD001250AE00121201D06
:100E500001F032FC03E00098012101F0BDFC0546E1
:100E60008DB12E46208840042AD5D4F8AC00B0F1CC
:100E7000405F23D010DC08B3B0F1805F14D0B0F134
:100E8000005F0FD115E0226ED8F8001021F4E021A8
:100E90001143C8F80010E5E7B0F1804F0ED0B0F173
:100EA000A04F0BD001250AE00121201D01F004FC18
:100EB00003E00098012101F08FFC05466DB12E463C
:100EC000208800041FD5E06ED8B1B0F1805F0ED04D
:100ED000B0F1005F10D0012514E0D4F8AC20D9F8AF
:100EE000001021F0E0411143C9F80010E8E738682C
:100EF00040F40030386004E00121201D01F0DCFBEB
:100F000005466DB12E462068C0011ED5606CD0B17B
:100F100001280ED0022811D0032814D0012513E097
:100F2000E26ED8F8001021F040511143C8F80010CB
:100F3000E9E7386840F40030386004E00221201D01
:100F400001F0BAFB054685B12E462068DFF85CB09B
:100F50004002ABF11C0B57D51648016841F4807173
:100F60000160FFF7CDFB82460EE01148626C001F66
:100F7000016821F0030111430160E6E7FFF7C0FBC0
:100F8000A0EB0A0064283DD80A480068C005F5D5E2
:100F90007DBBDFF81CA0B4F8B0200AF1200ADAF813
:100FA000001002F4407001F4407105E02C44025836
:100FB0005044025800480258814211D0DAF800101B
:100FC000DAF8002021F4407142F48032CAF800209F
:100FD000DAF8002022F48032CAF80020CAF80010A3
:100FE000D4F8B000B0F5807F21D1FFF789FB0190E4
:100FF00019E008E0FFF784FB0199411A41F28830BB
:10100000814210D903252E462078DFF844A4C0077A
:101010003DD0A06F182838D026DC80B3082829D00E
:10102000102825D12CE0DAF800008007E2D5D4F8AA
:10103000B010C1F30120032858460DD0016821F4F7
:101040007C510160B4F8B020DAF80010C2F30B0252
:101050001143CAF80010D7E7FE4A036802EA1112EA
:1010600023F47C511143ECE720280ED028280CD023
:1010700001250BE00121201D01F01EFB04E004E02E
:101080000098012101F0A8FB05465DB12E462078AD
:1010900080071ED5606F062819D2DFE800F0160C15
:1010A00011161616A26FDAF8001021F0380111435C
:1010B000CAF80010EBE70121201D01F0FDFA03E062
:1010C0000098012101F088FB054675B100E001257B
:1010D0002E46207840071FD5D4F89000062819D254
:1010E000DFE800F0160C11161616626FDAF8001021
:1010F00021F007011143CAF80010EAE70121201D81
:1011000001F0DAFA03E00098012101F065FB0546E1
:101110009DB100E001252E46207880062BD5D4F81D
:101120008C00B0F1405F24D011DC10B3B0F1805FCF
:1011300015D0B0F1005F10D116E0D4F89020D9F8A6
:10114000001021F007011143C9F80010E4E7B0F1E5
:10115000804F0ED0B0F1A04F0BD001250AE0002146
:10116000201D01F0A9FA03E00098022101F034FBF0
:1011700005468DB12E46207840062BD5D4F8980030
:10118000B0F5406F24D011DC10B3B0F5806F15D0EE
:10119000B0F5006F10D116E0D4F88C20DAF800100A
:1011A00021F0E0411143CAF80010E4E7B0F5805F98
:1011B0000ED0B0F5A05F0BD001250AE00021201D64
:1011C00001F07AFA03E00098022101F005FB0546E0
:1011D0008DB12E46207800062BD5D4F89C00B0F5B2
:1011E000C04F24D011DC10B3B0F5005F15D0B0F5BE
:1011F000804F10D116E0D4F89820D9F8001021F4CF
:10120000E0511143C9F80010E4E7B0F5004F0ED0EB
:10121000B0F5204F0BD001250AE00021201D01F080
:101220004BFA03E00098022101F0D6FA05464DB1D1
:101230002E46207800071ED5D4F88000B0F5805FD8
:101240000AD00FE0D4F89C20D9F8001021F46041B6
:101250001143C9F80010ECE70098022101F0BCFA34
:1012600000B10126D4F88020DAF8001021F44051B2
:101270001143CAF800102078C00613D5D4F89400A2
:10128000B0F5807F05D10098022101F0A5FA00B1E8
:101290000126D4F89420D9F8001021F440711143AC
:1012A000C9F800102068000316D5D4F8A00038B1A2
:1012B000B0F5803F09D0B0F5003F0BD001250AE022
:1012C0000021201D01F0F8F903E00098022101F04F
:1012D00083FA054685B12E462068400322D5D4F80E
:1012E0008400B0F5801F11D0B0F5001F13D0B0F509
:1012F000401F15D0012514E0D4F8A020D9F8001023
:1013000021F440311143C9F80010E5E7386840F492
:101310000030386004E00098012101F05DFA0546D4
:1013200055B12E462068C0031CD5E06C70B1B0F5F5
:10133000803F10D0012514E0D4F88420DAF80010A2
:1013400021F440111143CAF80010EBE7386840F46B
:101350000030386004E00221201D01F0ADF905469F
:10136000CDB12E462068800005D50098022101F0FD
:1013700033FA00B10126206880031BD5E06FB8B1B5
:10138000B0F5807F10D0B0F5007F11D0B0F5407F70
:101390000ED001250DE02E48E26C0838016821F4DA
:1013A000803111430160DDE7386840F40030386077
:1013B000F5B32E462068C00207D5226FD8F800107A
:1013C00021F000411143C8F800102068C00008D582
:1013D000D4F8B420DBF8001021F480411143CBF89D
:1013E00000102068800207D5A26ED8F8001021F006
:1013F00080711143C8F80010206840000CD5DBF85C
:10140000001021F40041CBF80010DBF80010D4F8F4
:10141000B8201143CBF800102068002807DA0C48E8
:10142000226D0838016821F040511143016000E04D
:1014300014E02068000208D5D4F88820DAF80010FB
:1014400021F440011143CAF8001086B1012003E0E5
:1014500054440258CFFFFF00BDE8FC9FE26FDAF86A
:10146000001021F440711143CAF80010A2E70020D7
:10147000EDE700002DE9F05F04000F467ED0DFF8B5
:101480003882D8F8000000F00F00B8420CD2D8F82B
:10149000001021F00F013943C8F80010D8F80000FF
:1014A00000F00F00B84269D12078844D40070AD57A
:1014B0002069296801F07001884204D9296821F067
:1014C00070010143296020787C4E361D00070AD543
:1014D0006069316801F07001884204D9316821F0F7
:1014E0007001014331602078C0060AD5A0693168D7
:1014F00001F4E061884204D9316821F4E0610143DC
:1015000031602078DFF8B4B180060BF1080B0CD500
:10151000E1695846DBF8002002F07002914204D9DC
:10152000026822F070020A430260207880070AD520
:10153000E068296801F00F01884204D9296821F088
:101540000F01014329602078C0073ED05B49A268A3
:101550002868183920F470601043286060680228F9
:1015600018D0032819D00968012819D04907002983
:101570004ADADFF848A1AAF1080A00E044E0DAF804
:10158000002022F007020243CAF80020FFF7B8F853
:10159000814612E009688903E9E709688901E6E7FD
:1015A000C905E4E7FFF7ACF8A0EB090141F2883088
:1015B000814202D90320BDE8F09F6168DAF800009B
:1015C00000F03800B0EBC10FECD1207880070AD5CD
:1015D000E068296801F00F01884204D2296821F0EF
:1015E0000F0101432960D8F80010404601F00F01B7
:1015F000B9420BD9016821F00F013943016000683D
:1016000000F00F00B84201D00120D4E72078400755
:101610000AD52069296801F07001884204D229683E
:1016200021F0700101432960207800070AD5606924
:10163000316801F07001884204D2316821F07001F4
:10164000014331602078C0060AD5A069316801F4F1
:10165000E061884204D2316821F4E06101433160E5
:10166000207880060CD5E1695846DBF8002002F0AE
:101670007002914204D2026822F070020A430260B2
:1016800000F09AF80E492A682B68C2F3032203F08F
:101690000F038A5CC95C02F01F0201F01F01D040F9
:1016A000084A20FA01F111600749086007480068FC
:1016B000BDE8F05FFFF760B8002000521844025800
:1016C0000046000814000024100000241C00002420
:1016D00070B5144C3F220260124A24680832131D70
:1016E000114D04F00704446016681C1D06F4706672
:1016F0008660166806F00F06C660126802F0700277
:1017000002611A6802F0700242611A6802F4E06233
:101710008261226802F07002C261286800F00F0046
:10172000086070BD104402580020005230B500F02F
:1017300043F80B4A0B490C4B15681468C5F3032298
:1017400004F00F048A5C095D02F01F0201F01F0122
:10175000D040064A20FA01F119601060084630BDF9
:101760001844025800460008140000241000002409
:1017700000B5FFF7DBFF05490968054AC1F302110F
:10178000515C01F01F01C84000BD00001C4402581C
:101790000046000800B5FFF7C9FF05490968054A7A
:1017A000C1F30221515C01F01F01C84000BD0000DF
:1017B0001C44025800460008454970B54548096870
:1017C000434B103B11F0380208D00111082A03D016
:1017D000102A0BD0182A0BD0084670BD196889064C
:1017E000FBD51968C1F3C101C84070BD3A4870BD4E
:1017F0003749374D18310C1D24350A6809682668A9
:101800002D6802F0030406F00102C1F30511C5F3CF
:10181000CC0515FB02F200EE102AB8EE400AE9B33F
:101820002F4ADFED2E0AB7EE001A6CB1DFED2D1A4C
:10183000012C01D0022C43D002EE101A1068F8EEF1
:10184000422A81EEA22A1EE01C68A40611D51B685C
:1018500001EE901A1168C3F3C103F8EE612AD84073
:1018600001EE900AC1F30800F8EE611A81EEA22A97
:101870000BE001EE901ADFED1C2A00BFF8EE611AB2
:10188000106882EEA12AC0F3080001EE900AF8EE7B
:10189000611A40EE201A31EE810A00E015E022EED6
:1018A000000A1068C0F34620401C00EE900AF8EED3
:1018B000600A80EE201ABCEEC10A10EE100A70BD5C
:1018C00001EE901ADFED092AD8E7002070BD000074
:1018D000104402580090D00340787D010000003988
:1018E000304402580024744A0024744C20BCBE4B7F
:1018F0002DE9F05F04007DD0FF4F2078FE4D1837B2
:10190000DFF8F493103DC00748D0D9F800003968DB
:1019100000F03800102815D0182803D101F003007A
:1019200002280FD06068B0F5803F12D010B1B0F53A
:10193000A02F18D0286820F480302860286820F470
:10194000802009E02868800328D560680028D2D06C
:1019500024E0286840F480302860606888B1FEF791
:10196000CFFE064609E0286840F480202860F0E7B2
:10197000FEF7C6FE801B64286FD828688003F7D561
:101980000CE0FEF7BDFE064605E000BFFEF7B8FE20
:10199000801B6428F0D828688003F7D4207841F2AF
:1019A0000308D54E0C3E800769D5D9F80000396888
:1019B00010F038000ED0182801D188070AD0E0684E
:1019C00090B3296821F0190101432960FEF798FEC0
:1019D000824631E02868400702D5E06800288AD0B6
:1019E000E168286820F0190008432860FEF788FEA7
:1019F000824607E0DFE000BFFEF782FEA0EB0A00B0
:101A00000228B9D828684007F6D500BFFEF772FE55
:101A100040451BD82069402812D0316821F47C3120
:101A200041EA003030602AE018E000BFFEF768FEAF
:101A3000A0EB0A0002289FD828684007F6D5E5E702
:101A4000306820F47C3040F40030EBE7207C3168D3
:101A500021F0FE4141EA0060E4E70DE1286820F052
:101A600001002860FEF74CFE824605E0FEF748FEC6
:101A7000A0EB0A0002288DD828684007F6D4207809
:101A8000C0065DD5D9F80000DFF86CB2396800F007
:101A90003800ABF1040B082810D0182803D101F04E
:101AA000030001280AD0E0690028286838D040F0F7
:101AB00080002860FEF724FE824623E02868C005E7
:101AC00023D5E069802876D11FE0206A202821D024
:101AD000316821F0F84141EA8060306030E000BFB9
:101AE00094F82010DBF8002022F07C5242EA0161D9
:101AF000CBF8001024E000BFFEF702FEA0EB0A00C6
:101B0000022898D82868C005F6D5FEF7F3FD4045B1
:101B1000E6D8DAE7306820F0F84040F08040DCE7B3
:101B200020F080002860FEF7EBFD064605E000BFD0
:101B3000FEF7E6FD801B02289DD82868C005F7D473
:101B40002078000729D56C486169643000298046F7
:101B5000016811D041F001010160FEF7D1FD064698
:101B600005E000BFFEF7CCFD801B0228C9D8D8F8DD
:101B700000008007F6D510E021F001010160FEF7BA
:101B8000BFFD064605E000BFFEF7BAFD801B022838
:101B900072D8D8F800008007F6D42078800623D5C4
:101BA000A0690028286810D040F480502860FEF713
:101BB000A7FD064605E02CE1FEF7A2FD801B0228EA
:101BC0005AD828688004F7D50EE020F480502860A9
:101BD000FEF796FD064604E0FEF792FD801B022804
:101BE0004AD828688004F7D4207840074FD5DFF81A
:101BF0000C81D8F8001041F48071C8F80010FEF78D
:101C00007FFD064605E000BFFEF77AFD801B6428D5
:101C100032D8D8F80000C005F6D5374EA068603637
:101C200001280AD008B1052813D0306820F001003F
:101C30003060306820F0040002E0306840F00100BD
:101C40003060A06841F2883A90B1FEF759FD8046B5
:101C50000AE0306840F004003060EEE7FEF750FD27
:101C6000A0EB0801514507D830688007F6D50EE093
:101C7000FEF746FD804607E084E000BFFEF740FD2A
:101C8000A0EB080151457DD830688007F6D4606A22
:101C9000B0B3DFF86480D9F8001008F12008C1F370
:101CA000C20103296FD00228286820F080702860C4
:101CB00003D0FEF725FD044680E0FEF721FD064631
:101CC00005E000BFFEF71CFD801B022873D82868C2
:101CD0008001F7D4E26A40F2F331386854F8283FC3
:101CE000884340EA021018433860217B4FF4FE0C11
:101CF00022894FF0FE4704E0104402580048025881
:101D000089E0208A4902521E267DA1F5007189B220
:101D1000401EC2F308021143761E0CEA0040014344
:101D20003E4807EA066211433C4AC8F800100832F0
:101D3000016821F00101016011684FF6F876236A0D
:101D4000B14341EAC30111600168A26921F00C01AD
:101D5000114301600168E26921F002011143016051
:101D6000016841F480310160016841F40031016093
:101D7000016841F480210160016841F001010160C6
:101D8000286801E017E01DE040F080702860FEF751
:101D9000B7FC044605E000BFFEF7B2FC001B0228BA
:101DA00009D828688001F7D535E000BFFEF7A8FC08
:101DB000001B022802D90320BDE8F09F286880019B
:101DC000F4D428E039680128D8F8000021D0A26AAC
:101DD00001F0030393421CD1E26AC1F305118A4268
:101DE00017D1216BC0F30802491E8A4211D1616BE1
:101DF000C0F34622491E91420BD1A16BC0F30642AB
:101E0000491E914205D1E16BC0F30660491E814233
:101E100001D00120D0E70020CEE700002C4402587A
:101E20007047704770470000F0B590F83C20012AD9
:101E30003BD01F4E012480F83C40022280F83D2018
:101E400002681C4D5368B242D2F808C001D0AA42C1
:101E500003D14F6823F470033B430F6823F07003F2
:101E60001F4357600268B24213D0B2F1804F10D0C6
:101E7000114B9A420DD0114B9A420AD0104B9A4204
:101E800007D0AA4205D00F4B9A4202D00E4B9A427D
:101E900004D189682CF0800319439160002180F8F7
:101EA0003D4080F83C100846F0BD0220F0BD000027
:101EB0000000014000040140000400400008004010
:101EC000000C0040001800400040014010B5040024
:101ED00003D094F83D0010B107E0012010BD0020B0
:101EE00084F83C00204600F023F8022084F83D00EE
:101EF0002068211D01F0AAF8012084F8480084F828
:101F00003E0084F83F0084F8400084F8410084F8E3
:101F1000420084F8430084F8440084F8450084F8C3
:101F2000460084F8470084F83D00002010BD000002
:101F300008B500680B49884212D10B48016841F08E
:101F40000101016000680022062100F001000090FC
:101F50001920FEF773FCBDE808401920FEF760BCAD
:101F600008BD000000000140F044025890F83D1008
:101F7000012901D001207047174A022180F83D1045
:101F80000168CB6843F00103CB600068904214D035
:101F9000B0F1804F11D0114988420ED010498842CB
:101FA0000BD01049884208D00F49884205D00F490C
:101FB000884202D00E49884207D181680D4A1140FB
:101FC000062906D0B1F5803F03D0016841F0010138
:101FD0000160002070470000000001400004004044
:101FE00000080040000C00400004014000180040C0
:101FF000004001400700010070B5044690F83C0025
:102000000025012814D03A4B012684F83C600220B8
:1020100084F83D0022689068184020F47F4090606A
:10202000086870282FD010DC10F00F0F03D022E0CA
:102030004FF0020070BD4FEA2012072A1BD2DFE8E2
:1020400002F0535353534B394100B0F1101F4BD0A2
:1020500009DCB0F5805F0FD0B0F5005F1ED0B0F5A1
:10206000801F08D140E0A0F5801120393CD0102914
:102070003AD0202938D0012584F83D60002084F82A
:102080003C00284670BD4A682068D1E9021301F07F
:102090003FF82068816841F0770109E04A682068CC
:1020A000D1E9021301F034F82068816841F48041DD
:1020B0008160E1E7CA684968206801F03DF820685E
:1020C000502106E0CA684968206801F046F8206897
:1020D000602101F027F8CFE7CA684968206801F05D
:1020E0002BF820684021F4E7226801461046F0E70B
:1020F00088FFCEFF704770B504460068002501696F
:10210000C943890715D4C168C943890711D4EA1E98
:10211000026101212177206880698007204602D072
:10212000FFF7E8FF04E000F0A7F8204600F0A5F86C
:10213000257720680169C943490717D4C168C94395
:10214000490713D402216FF004020261217720684D
:10215000806910F4407F204602D0FFF7CBFF04E0F7
:1021600000F08AF8204600F088F825772068016999
:10217000C943090716D4C168C943090712D4042109
:102180006FF00802026121772068C069800720464D
:1021900002D0FFF7AFFF04E000F06EF8204600F039
:1021A0006CF8257720680169C943C90617D4C1684E
:1021B000C943C90613D408216FF0100202612177C8
:1021C0002068C06910F4407F204602D0FFF792FFDC
:1021D00004E000F051F8204600F04FF82577206821
:1021E0000169C943C90708D1C168C943C90704D1F6
:1021F000891E0161204600F041F820680169C94349
:10220000090609D4C168C943090605D46FF08001E5
:1022100001612046FFF705FE20680169C943C90531
:1022200009D4C168C943090605D46FF480710161FE
:102230002046FFF7F5FD20680169C943490609D426
:10224000C168C943490605D46FF0400101612046C9
:1022500000F01EF820680169C94389060BD4C168E3
:10226000C943890607D46FF0200101612046BDE80B
:102270007040FFF7D7BD70BD7047704700680349D5
:10228000884201D1FEF742BA704700000048014081
:10229000704730B590F88010012918D0012280F8DD
:1022A00080202421C0F884100022202450F8641BD0
:1022B0000B680D6823F0005325F001050D600260E6
:1022C00050F8641C0B6004620277104630BD022097
:1022D00030BD70B5044690F8800001281DD0012261
:1022E00084F880202420C4F88400206805680268EF
:1022F00022F0010202602068826822F060620A43D4
:102300008260204600F03CFF2268202100201560FA
:10231000C4F8841084F8800070BD022070BD70B5D0
:10232000044690F8800001281DD0012284F8802006
:102330002420C4F8840020680568026822F00102A5
:1023400002602068826822F060420A438260204670
:1023500000F016FF2268202100201560C4F88410C8
:1023600084F8800070BD022070BD10B5040003D059
:10237000D4F8840010B107E0012010BD002084F8DB
:102380008000204600F026F82420C4F8840020684D
:10239000016821F001010160204600F0A7FF01283B
:1023A000EBD0A06A10B1204600F00CFF2068416815
:1023B00021F4904141602068816821F02A01816008
:1023C0002068016841F0010101602046BDE810402D
:1023D00000F05CBF10B5B6B0044614212FA8FEF77C
:1023E00021F8BC216846FEF71DF81849206888428C
:1023F00029D104200090002468462494FEF7D0FBE5
:1024000008B1FEF74DF81248016841F0080101607B
:10241000006800F0080034900D481438016841F05D
:102420000101016000682FAB022100F0010034902F
:102430004FF4C060032283E8130006482FA9CDE9BA
:102440003242FEF741F836B010BD0000000C0058D3
:10245000F4440258000002582DE9F8430446D0F82D
:1024600084001F4616460D46202852D1DDB1D6B154
:1024700094F8800001284CD0012084F880002122AB
:102480004FF00008C4F88C80C4F884201834FEF79C
:1024900037F9814654F8100CA687E687183CB0F54A
:1024A000805F03D004E00120BDE8F883206920B1FB
:1024B0002E46002584F8808010E00026FAE780216F
:1024C000204601F0E9F8B8B9C6B116F8010B216849
:1024D0008862B4F85600401EA4F85600B4F85600BE
:1024E0004B464FF0000200970028E8D14FF0400122
:1024F000204601F0D1F838B10320D5E735F8020BBA
:102500002168C0F30800E3E72020C4F8840000201D
:10251000CAE70220C8E7FEE710B51F4896B001F0F1
:102520006FFD1D48143001F076FD1B48283001F086
:1025300072FD19483C3001F06EFD174B28213C22FA
:1025400014333220196003F114010A6014311C2283
:10255000086068461149FDF74CFF0021684601F00C
:10256000D4FA0F4C1C220D491C31606007A8FDF7FE
:1025700040FF002107A801F0C8FA08491C22A0600A
:102580000EA83831FDF735FF00210EA801F0BDFA85
:10259000E06016B010BD000090000024AC450008BB
:1025A000000000240D4808B5016841F004010160F5
:1025B000016801F004010091016841F080010160AF
:1025C000016801F080010091016841F001010160A2
:1025D000006800F00100009008BD0000E0440258CF
:1025E0001848002110B5164C0C224FF4E13304605A
:1025F000C0E90131C160C0E9041281610162416238
:1026000081624166FFF7B1FE08B1FDF749FF0D4851
:102610000021FFF784FE08B1FDF742FF09480021C1
:10262000FFF757FE08B1FDF73BFF0648FFF731FE05
:10263000002803D0BDE81040FDF732BF10BD0000F8
:10264000000C00583403002410B588B0184800244A
:1026500016494FF6FF1200940194D311029403948B
:1026600004940594069480E81600C0E9033444619C
:102670008461FFF72BFC08B1FDF712FF4FF4805087
:1026800000900B486946FFF7B7FC08B1FDF708FF5B
:10269000074804A9049405940694FFF7C5FB002895
:1026A00001D0FDF7FDFE08B010BD000000000140A4
:1026B000C4030024FEE7FEE72DE9F047454D04463C
:1026C00089464FF0000A2868C04380070AD0414E6F
:1026D000283E306820F080603060FEF711F8074631
:1026E000B04608E00120BDE8F08700BFFEF708F81B
:1026F000C01B022867D8D8F800000001F6D4206873
:1027000029684FF4FE0721F47C313E0241EA003093
:102710002860207AA389B4F804C040022D4D2D49C9
:102720005B1E227CACF1010C1035091DA0F5007078
:1027300080B2521ECCF3080C07EA034340EA0C00B7
:10274000184306EA0262104328600868626920F0B4
:10275000C000104308600A68A06922F0200202430A
:102760000A60281D0A6822F010020A6002684FF60B
:10277000F873E4699A4342EAC40202600868B9F156
:10278000000F40F010020A6011D00868B9F1010F83
:1027900011D040F400100860D8F80000444640F022
:1027A0008060C8F80000FDF7ABFF05460DE0086843
:1027B00040F40020EFE740F48010ECE7FDF7A0FFC5
:1027C000401B022801D903208DE720680001F5D5C0
:1027D000504688E7284402582DE9F047454D044605
:1027E00089464FF0000A2868C04380070AD0414E4E
:1027F000283E306820F080503060FDF781FF0746AA
:10280000B04608E00120BDE8F08700BFFDF778FF83
:10281000C01B022867D8D8F800008000F6D42088B2
:1028200029684FF4FE0721F07C713E0241EA005016
:102830002860207AA389B4F804C040022D4D2D49A8
:102840005B1E227CACF1010C1835091DA0F500704F
:1028500080B2521ECCF3080C07EA034340EA0C0096
:10286000184306EA0262104328600868626920F48F
:102870004060104308600A68A06922F400720243B5
:102880000A60281D0A6822F480720A6002684FF606
:10289000F873E4699A4342EAC40202600868B9F135
:1028A000000F40F480720A6011D00868B9F1010F7E
:1028B00011D040F080700860D8F80000444640F025
:1028C0008050C8F80000FDF71BFF05460DE00868C2
:1028D00040F48000EFE740F40000ECE7FDF710FF64
:1028E000401B022801D903208DE720688000F5D520
:1028F000504688E728440258012001F0FAF8FBE727
:102900007C4C7D4F04F1140504F1280604F13C08C9
:10291000388850B1012826D002283ED003285AD04A
:1029200004287DD005287CD0DCE074A000F01AFFDC
:1029300070497DA000F016FF61687FA000F012FFD3
:102940006C4984A0083100F00DFF6A4988A0143159
:1029500000F008FF67498BA0283100F003FF6549AC
:102960008DA03C3133E063496248143101F056FBDD
:102970008EA000F0F7FEE16897A000F0F3FE696812
:102980009EA000F0EFFEA4A000F0ECFE2169ADA037
:1029900000F0E8FEA968B5A04BE05649554828313B
:1029A00001F03CFBB9A000F0DDFEE1688AA000F078
:1029B000D9FE696891A000F0D5FE7168BEA000F054
:1029C000D1FEC4A000F0CEFE21699EA04DE000F033
:1029D000C9FECBA084E0474946483C3101F01EFBCC
:1029E000D2A000F0BFFEE1687BA000F0BBFE6968EA
:1029F00082A000F0B7FED8F80410D7A000F0B2FE15
:102A00007168ADA000F0AEFE83A000F0ABFE2169BE
:102A1000D8A000F0A7FEA96894A000F0A3FE01E0F2
:102A20000BE02BE0D8F80810DCA000F09BFEB168AA
:102A3000E2A000F097FEE9A052E02E483C3001F001
:102A4000BFFAF1A000F08EFEE16863A000F08AFEFC
:102A500069686AA000F086FE716897A000F082FEA7
:102A60009CA000F07FFE2169C2A000F07BFEA96857
:102A70007EA000F077FEB168D0A0A8E71D491D48F0
:102A80003C3101F0E3FAEBA000F06CFE61682AA093
:102A900000F068FEE16850A000F064FE716886A056
:102AA00000F060FE696855A000F05CFED8F80410E4
:102AB000A9A000F057FE87A000F054FE2169ADA048
:102AC00000F050FEB168BDA000F04CFEA96867A000
:102AD00000F048FED8F80810B0A000F043FEE0A0D7
:102AE00000F040FE3888401C3880642001F001F876
:102AF0000EE7000090000024000000242F2A2A2A5C
:102B00002A2A2A2A2A2A2AC1D0B1EDBACDC1D0B1A7
:102B1000EDCFEEB5D8D6B72A2A2A2A2A2A2A2A2A77
:102B20002A2A2F0D0A000000546573744C697374CF
:102B300020252378200D0A00546573744C69737442
:102B40002D3E7078496E64657820252378200D0A23
:102B500000000000546573744C6973742D3E784C0A
:102B6000697374456E6420252378200D0A000000E7
:102B70004C6973744974656D3120252378200D0AE2
:102B8000000000004C6973744974656D3220252380
:102B900078200D0A000000004C6973744974656D5B
:102BA0003320252378200D0A000000002F2A2A2A2E
:102BB0002A2A2A2A2A2ACCEDBCD3C1D0B1EDCFEEE5
:102BC000204C6973744974656D312A2A2A2A2A2A8D
:102BD0002A2A2A2A2F0D0A00546573744C697374CB
:102BE0002D3E784C697374456E642D3E70784E6549
:102BF000787420252378200D0A0000004C69737436
:102C00004974656D312D3E70784E657874202523AA
:102C100078200D0A000000002F2A2A2A2A2A2A2AB0
:102C20002A2A2AC7B0BAF3CFF2C1ACBDD3B7D6B8FF
:102C3000EECFDF2A2A2A2A2A2A2A2A2A2A2A2F0DEE
:102C40000A000000546573744C6973742D3E784C0F
:102C5000697374456E642D3E707850726576696F45
:102C600075732020252378200D0A00004C697374A9
:102C70004974656D312D3E707850726576696F7557
:102C80007320252378200D0A000000002F2A2A2A0D
:102C90002A2A2A2A2A2ACCEDBCD3C1D0B1EDCFEE04
:102CA000204C6973744974656D322A2A2A2A2A2AAB
:102CB0002A2A2A2A2F0D0A004C6973744974656DFB
:102CC000322D3E70784E65787420252378200D0AC9
:102CD000000000002F2A2A2A2A2A2A2A2A2A2A2AF7
:102CE000C7B0BAF3CFF2C1ACBDD3B7D6B8EECFDF21
:102CF0002A2A2A2A2A2A2A2A2A2A2F0D0A000000EA
:102D00002F2A2A2A2A2A2A2A2A2A2A2A2A2A2A2A1E
:102D10002ABDE1CAF82A2A2A2A2A2A2A2A2A2A2A5B
:102D20002A2A2A2A2A2A2F0D0A0D0A002F2A2A2A9D
:102D30002A2A2A2A2A2ACCEDBCD3C1D0B1EDCFEE63
:102D4000204C6973744974656D332A2A2A2A2A2A09
:102D50002A2A2A2A2F0D0A004C6973744974656D5A
:102D6000332D3E70784E65787420252378200D0A27
:102D700000000000546573744C6973742D3E784CE8
:102D8000697374456E642D3E707850726576696F14
:102D9000757320252378200D0A0000004C69737498
:102DA0004974656D332D3E707850726576696F7524
:102DB0007320252378200D0A000000004C697374ED
:102DC0004974656D322D3E707850726576696F7505
:102DD0007320252378200D0A000000002F2A2A2ABC
:102DE0002A2A2A2A2A2A2A2A2A2A2A2A2A2ABDE1F9
:102DF000CAF82A2A2A2A2A2A2A2A2A2A2A2A2A2AC5
:102E00002A2A2F0D0A0D0A002F2A2A2A2A2A2A2ABC
:102E10002A2A2AC9BEB3FDC1D0B1EDCFEE204C693C
:102E200073744974656D332A2A2A2A2A2A2A2A2A7F
:102E30002F0D0A002F2A2A2A2A2A2AD4DAC4A9CE38
:102E4000B2CCEDBCD3C1D0B1EDCFEE204C697374E0
:102E50004974656D332A2A2A2A2A2A2A2F0D0A0044
:102E60002F2A2A2A2A2A2A2A2A2A2A2A2A2A2A2ABD
:102E70002ABDE1CAF82A2A2A2A2A2A2A2A2A2A2AFA
:102E80002A2A2A2A2A2A2F0D0A0D0A0D0A000000D2
:102E90004FF4FA74204600F02CFEFBE7502010B5EA
:102EA00080F31188BFF34F8FBFF36F8F01F0B6FA35
:102EB00018B104494FF080500860002080F3118859
:102EC00010BD000004ED00E030B59DB04C21684617
:102ED000FDF7A8FA202113A8FDF7A4FA0220FDF7B8
:102EE000DFFC1B490A681B4822F001020A600968DE
:102EF000016821F4404141F48041016001680024EF
:102F000001F440411B9101688904FCD540250994D6
:102F10000220009001216846CDE90315FEF7E8FC88
:102F200008B172B6FEE73F20CDE913044FF480618B
:102F30001594CDE9164513A81A94CDE9184101213D
:102F4000FEF798FA002801D072B6FEE71DB030BD3A
:102F50002C040058184802582C48F0B52C4A016837
:102F600041F470010160106800F00F00072804D2DE
:102F7000106820F00F00C01D106026490020254C6D
:102F800010340B68244D43F001030B6020600B6884
:102F90002B400B60136803F00F03072B04D9136851
:102FA00023F00F03DB1D13601A4C1C4A18341C4B12
:102FB000261D371D2060174C1A4D28343060261D01
:102FC0003860371D23603B1D35601C1D3A60251D90
:102FD0002E1D1860331D22602860326018600A6858
:102FE0000C4B114C22F4802260330A601860206878
:102FF0006FF30F00B0F1005F03D20C490120C1F85C
:10300000080143F2D2000A490860F0BD88ED00E0F3
:1030100000200052004402587FEDF6EA80020101D0
:10302000000202020000FF010010005C008000515D
:10303000004000520148FFF75EB800001004002471
:103040000148FFF758B80000C40300242DE9F047F9
:10305000274B4FF0804A274D02689842264E274F53
:10306000274C09D0504507D0A84205D0B04203D024
:10307000B84201D0A04205D1D1F804C022F07002BC
:103080004CEA0202DFF87CC0DFF87C809842DFF86F
:103090007C900FD050450DD0A8420BD0B04209D043
:1030A000B84207D0A04205D0604503D0404501D0CA
:1030B000484503D1CD6822F440722A434D6922F07D
:1030C00080022A43026098428A68C2620A68826269
:1030D00007D0A04205D0604503D0404501D0484507
:1030E00001D10969016301214161BDE8F087000058
:1030F000000001400004004000080040000C0040B7
:1031000000040140004001400044014000480140EB
:1031100042EA032283680A4323F47F410A43826020
:1031200070470000034B82681A400A4342F00701CF
:10313000816070478FFFCFFF10B5036A046A23F0E8
:103140000A0324F00104046284690B4324F0F001B3
:1031500041EA02118161036210BD10B5036A23F0D8
:10316000100303628369046A23F4704324F0A0040B
:1031700043EA0232826144EA0111016210BD00009B
:1031800030B5416EB9B101680D4B03F108048A688E
:103190008968C2F34262490F5D5C615C2D01B5FB39
:1031A000F1F1A0F86A10995CA25C0901B1FBF2F19F
:1031B000A0F8681030BD0121A0F86A10F8E70000FF
:1031C0002846000890F82810C90706D00168C36A8D
:1031D0004A6822F400321A434A6090F8281089079E
:1031E00006D50168036B4A6822F480321A434A60AC
:1031F00090F82810490706D50168436B4A6822F405
:1032000080221A434A6090F82810090706D5016801
:10321000836B4A6822F400421A434A6090F82810EF
:10322000C90606D50168C36B8A6822F480521A4326
:103230008A6090F82810890606D50168036C8A68B0
:1032400022F400521A438A6090F82810490611D5DA
:103250000168436C4A6822F480121A434A60416C48
:10326000B1F5801F06D10168836C4A6822F4C00260
:103270001A434A6090F82810090606D50168C26C06
:10328000486820F40020104348607047F8B50026D5
:103290000446C0F88C60FDF733FA054620686FF0ED
:1032A0007E470068000708D500222B464FF4001126
:1032B0002046009700F0F0F960B9206800684007E8
:1032C0000AD500222B464FF480012046009700F0DB
:1032D000E3F908B10320F8BD2020C4F88400C4F845
:1032E0008800E666002084F88060F8BD2DE9F04390
:1032F00004468068D84E87B0D84B2168D4E90427AB
:10330000D4F81CC010430A68002547EA0C0738436C
:10331000324002430A602068E268416821F440516B
:10332000114341602268A1699A4201D0206A014399
:103330009768DFF82CC3CB4ECB4807EA0C070F4346
:1033400097602168676ACA6A22F00F023A43CA622C
:103350002268B2420ED1006800F03800182873D0FD
:1033600047DCB8B3082879D010286FD178E0282836
:103370007ED17BE0BD498A4209D1006800F0070098
:10338000062875D2DFE800F0546A6C6E7072B84996
:103390008A4209D1006800F00700062868D2DFE8F9
:1033A00000F0475D5F616365B2498A4209D10068F8
:1033B00000F0070006285BD2DFE800F03A505254D4
:1033C0005658AD498A420BD1006800F00700062824
:1033D0004ED200E010E0DFE800F02B4143454749C2
:1033E000A6498A420AD1006800F03800182839D06E
:1033F000B7DD2028BBD13CE001203AE0A0498A4259
:1034000009D1006800F00700062831D2DFE800F09B
:103410001026282A2C2E9B498A420BD1006800F0E6
:103420000700062824D2DFE800F003191B1D1F2126
:1034300000201EE09A421BD18B48001D006800F05E
:103440000700062814D202E00CE007E010E0DFE8F5
:1034500000F0030507090B0D02200AE0042008E034
:10346000082006E0102004E0202002E0402000E0D8
:1034700080208549DFF814829A42854A4FF4004340
:103480004FEA21174FF000064ED110281AD006DC63
:10349000022809D004280BD008287CD10DE0202870
:1034A0003ED0402877D13DE0FDF724FA014610E0F8
:1034B0006846FDF731FA01990BE003A8FDF7CEFA53
:1034C000049906E01068800605D51068C0F3C100B5
:1034D000C140002970D0606A676838F8102007EB97
:1034E0004703B1FBF2F0834255D8B0EB073F52D807
:1034F000002308461946FCF74BFF02467808130ED6
:10350000120243EA012110183A4671410023FCF7E8
:103510003FFF604AA0F5407191423CD821688FE09E
:103520003946D8E71946D6E7D4F81CC04FF6EF79EC
:103530009C4546D1082819D005DC58B101280CD08B
:10354000042875D10DE0102815D0202835D040284A
:103550006ED134E0FEF70CF901E0FEF71BF90146ED
:1035600010E06846FDF7D8F901990BE003A8FDF7D4
:1035700075FA049906E01068800604D51068C0F357
:10358000C100C140C1B1636A606838F81330B1FB53
:10359000F3F1490000E04BE001EB5001B1FBF0F02A
:1035A000A0F11001494543D84FF6F0732168C0F3EC
:1035B00042021840104343E043E03946E3E719462E
:1035C000E1E7082819D005DC58B101280CD00428FF
:1035D0002ED10DE0102815D020282BD0402827D13F
:1035E0002AE0FEF7C5F801E0FEF7D4F8014610E046
:1035F0006846FDF791F901990BE003A8FDF72EFA53
:10360000049906E01068800604D51068C0F3C10074
:10361000C140B1B1636A606838F81330B1FBF3F1AF
:1036200001EB5001B1FBF0F0A0F11001494505D9C3
:10363000012506E03946EDE71946EBE7216880B23F
:10364000C8600120A4F86A00A4F86800284626672C
:10365000666707B0BDE8F083F369FFCF000C005840
:10366000FFF4FF1100100140544402580044004090
:1036700000480040004C0040005000400014014051
:1036800000780040007C00400090D0031046000805
:1036900000440258FFFC0F002DE9F0479A461746F8
:1036A0000E460446089D4FF000094FF020084CE0FC
:1036B000681C4AD0FDF724F8A0EB0A00A8422AD8DB
:1036C0004DB32068016849073FD5C069C043000574
:1036D0003BD421684FF400600862216851E8000F74
:1036E00020F4D07041E80002002AF6D120680830AA
:1036F00050E8001F21F0010140E80012002AF5D136
:10370000C4F8848084F88090C4F88880C4F88C80E1
:103710000320BDE8F087206850E8001F21F4D07135
:1037200040E80012002AF6D12068083050E8001F57
:1037300021F0010140E80012002AF5D1C4F884808C
:1037400084F88090C4F88880E2E72068C06936EA8F
:10375000000004D00020B842AAD00020D9E7012000
:10376000F9E7FEE70FB4054B10B503A9044A029828
:1037700000F028F810BC5DF814FB0000853A000842
:103780008C000024090700284FEA116104DB00F1D6
:10379000E02080F80014704700F00F0000F1E020F6
:1037A00080F8141D704702E008C8121F08C1002AE3
:1037B000FAD170477047002001E001C1121F002AB2
:1037C000FBD170472DE9FF4F8DB09B460F46044655
:1037D000002606E025280BD05A460F999047641C16
:1037E000761C20780028F5D111B03046BDE8F08F66
:1037F0000025A8460122984900E0054314F8013F3E
:10380000203B02FA03F00842F7D120782E2817D186
:1038100014F8010F45F004052A280ED06FF02F028E
:103820002078A0F1300109290AD808EB880102EBC1
:10383000410100EB0108641CF2E757F8048B641C9B
:1038400020786C280DD004DC4C2812D06A2811D1C5
:1038500004E074280DD07A280CD10AE045F4001554
:1038600007E0617845F48015814202D1641C05F5BA
:103870008015641C2278692A45D008DC002AB3D060
:10388000582A69D0632A10D0642A08D13BE0702AF4
:1038900067D0732A13D0752A5CD0782A5CD0104682
:1038A0005A460F999047761CD3E017F8040B8DF811
:1038B000000000208DF80100E946012003E057F8E0
:1038C000049B4FF0FF3069074FF0000501D40AE078
:1038D0006D1C45450DDA8542FADB19F80510002903
:1038E000F6D106E06D1C8542FCDB19F805100029B5
:1038F000F8D12E4404E019F8010B5A460F9990476D
:103900006D1EF8D2A5E00A200021CDE90801C5F31B
:10391000025002280DD001CFC117031E71F1000320
:103920000DDA4FF0000CD0EB0C006CEB01012D23F5
:1039300008E0FF1D27F00707F7E80201EDE72B0578
:1039400004D52B238DF8283001233BE0EB0739D039
:103950002023F7E70A2000E010200021CDE908012C
:1039600007E01020002145F00405CDE908014FF0E3
:103970000808C5F3025002280FD001CF00214FF0F4
:10398000000A2B071FD5702A0DD0DDE908C38CF083
:10399000100C5CEA030C0CD015E0FF1D27F00707A4
:1039A000F7E80201EBE740228DF828204FF0010AEA
:1039B0000BE050EA010306D030238DF828308DF853
:1039C000292002239A46582A04D024A20DF1200966
:1039D0000B9209E026A2F9E7DDE90823FCF7D8FC01
:1039E0000B9B9B5C09F8013D50EA0102F4D1ADEB61
:1039F000090020300890680701D44FF001080899A9
:103A0000884502DDA8EB010000E00020804600258B
:103A100006E00AA85A46405D0F9990476D1C761C37
:103A20005545F6DB04E030205A460F999047761C46
:103A3000B8F10001A8F10108F5DC05E019F8010B67
:103A40005A460F999047761C0899481E08900029FD
:103A5000F4DC641CC5E60000092801003031323373
:103A600034353637383961626364656600000000BA
:103A700030313233343536373839414243444546A4
:103A80000000000013B50448052301226946FEF733
:103A9000E3FC00981CBD000034030024FCF73EFE4C
:103AA000FFF712FAFEF77EFDFEF79AFDFEF7CCFD5A
:103AB00007A109A0FFF756FE6420FCF7F3FC0848B5
:103AC000FEF754FAFEF728FD00F01AF8FEE70000B2
:103AD00068656C6C6F00000025730D0A0000000023
:103AE000C4030024842801464FF0000000D0C81C05
:103AF000704710B500B9012000F02CFB002010BD6C
:103B000010B500F04DFB002010BD7FB50D4641699A
:103B10000446B0F9080081B1A16971B1FFF7E2FF75
:103B2000D4E905122B468DE807002269D4E900107C
:103B300000F049FC039004B070BDFFF7D3FF03A968
:103B40002B46CDE90001228AD4E9001092B200F0A0
:103B50000DFC012801D00020EDE70398EBE7000001
:103B60002DE9F041184C0F460546E6682068001D17
:103B700000F026FA38B922680121206992F82C2039
:103B8000914088432061681C07D137B12168BDE8A6
:103B9000F0410E48091D00F059BA20683544B5427D
:103BA0004560216805D2A06B091DBDE8F04100F019
:103BB00035BA606B091D00F031FAA06A854200D267
:103BC000A562BDE8F081000024000024380500242F
:103BD0002DE9F041054600F045FA2E4C2E4FA06825
:103BE000401CA060206810B1606940B32DE02560E2
:103BF000A068012829D1002606EB860007EB80008B
:103C000000F0FEF9761C072EF6D323488C3000F026
:103C1000F7F92148A03000F0F3F91F48B43000F064
:103C2000EFF91D48C83000F0EBF91B48DC3000F01C
:103C3000E7F919488C3060631430A06305E0E86A46
:103C40002168C96A814200D825600120616A491C47
:103C50006162E96A226988401043206101EB8100BA
:103C6000291D07EB800000F0F1F900F01BFA6069F4
:103C700000280CD02068E96AC06A884207D2074948
:103C80004FF080500860BFF34F8FBFF36F8FBDE8D8
:103C9000F0810000240000245C04002404ED00E016
:103CA00010B5044690F8510058B101280CD00228F4
:103CB0000FD0502080F31188BFF34F8FBFF36F8F69
:103CC000FEE7206B00F002FA2046BDE8104000F04D
:103CD000FDB910BD11484FF4705110B5420706D020
:103CE0000E49C01D20F00700411AC1F570510C4C5F
:103CF000002301440839A4F1180221F00701C4E9A6
:103D000000030C1A11604B600B60C0E90014946052
:103D10004FF000415460516110BD00004C0500247B
:103D200078000024144E4FF08058144CDFF8509067
:103D3000A6F1C80712E000BF00F094F9F068C5686A
:103D4000281D00F03DF9A068401EA0606068401E7C
:103D5000606000F0A7F92846FFF7A2FF606800281E
:103D6000EAD138680128F9D9C9F80080BFF34F8F2C
:103D7000BFF36F8FF2E70000240500242400002425
:103D800004ED00E02DE9F0479A4681466FF0030309
:103D9000DDE9098403EB8202089E206B104420F0C9
:103DA0000707780707D0502080F31188BFF34F8FA3
:103DB000BFF36F8FFEE74FF0000561B100202318BD
:103DC0000A5C83F834200A5C12B1401C1028F6D338
:103DD00084F8435001E084F83450072E00D30626BF
:103DE000E662201DC4E9116500F015F904F1180020
:103DF00000F011F9E564C6F10700A06184F85050A5
:103E00005246246149463846646200F0C1F8B8F170
:103E1000000F206001D0C8F80040BDE8F087000026
:103E200030B5114900E011460A688242FBD34B6865
:103E30005C18844203D14468084623444B604368BD
:103E40001D18954209D1084C183C2468A24209D09B
:103E500052681A4442600A6812680260814200D0C7
:103E6000086030BD0460F9E7780000240648416B23
:103E7000096829B1416BC968C9684968816270479E
:103E80004FF0FF31FAE700002400002408484068A2
:103E9000401C4FF0500080F3118804D0BFF34F8FC7
:103EA000BFF36F8FFEE7BFF34F8FBFF36F8FFEE758
:103EB000800000242DE9F0410027044600F0A6F917
:103EC000324E306808B9FFF705FF706904424ED1E1
:103ED000C4B3083460070ED004F00700C0F1080036
:103EE0000444600707D0502080F31188BFF34F8F40
:103EF000BFF36F8FFEE72CB37068844237D8234836
:103F0000183001460D6801E028460D466968A14257
:103F100002D229680029F7D131688D4227D007687D
:103F20002968016008376868011B10290FD9281912
:103F3000420708D0502080F31188BFF34F8FBFF3A2
:103F40006F8FFEE713E041606C60FFF769FF6968FF
:103F50007068401A7060B268904200D2B060002071
:103F600072691143C5E90001F068401CF06000F07F
:103F7000BBFA780707D0502080F31188BFF34F8F2A
:103F8000BFF36F8FFEE73846BDE8F0816000002484
:103F900070B5041F094E231F4FF0807521F00101F9
:103FA00025601C1F1960A0F120010B1F26604438FA
:103FB0000A606FF002051D6070BD00008D3E0008B4
:103FC000D0E9013201699A60D0E901235A604A6858
:103FD000824201D182684A60002202610868401E64
:103FE000086008687047000010B5044C8023046026
:103FF00004F154000860136010BD0000E0000024CC
:104000004FF0FF3300F108010022C0E90113026004
:10401000C1600161704700210161704730B50B68D4
:104020005A1C02D000F1080202E0026904E02246B4
:10403000546825689D42FAD953684B6099608A603C
:10404000516008610168491C016030BD42684A60E6
:1040500093688B6093685960916008610168491C9E
:1040600001607047502080F31188BFF34F8FBFF37A
:104070006F8F0A494868401C486001280CD10848E5
:10408000006810F0FF0F07D0502080F31188BFF3B5
:104090004F8FBFF36F8FFEE7704700008000002452
:1040A00004ED00E00849486828B1401E486001D18D
:1040B00080F311887047502080F31188BFF34F8F31
:1040C000BFF36F8FFEE700008000002470B500286A
:1040D0002AD0164DA0F1080461686869014207D131
:1040E000502080F31188BFF34F8FBFF36F8FFEE72F
:1040F00022683AB1502080F31188BFF34F8FBFF38D
:104100006F8FFEE78143616000F080F86068696846
:10411000084468602046FFF783FE2869401C286138
:10412000BDE8704000F0E0B970BD00006000002400
:104130004FF0E020002101614FF47A728161072382
:1041400003490968B1FBF2F1491E416103617047FF
:1041500010000024020010B514D00F48006B38B1D5
:10416000502080F31188BFF34F8FBFF36F8FFEE7AE
:1041700000F04CF800211046FFF7F2FC00F0B4F913
:10418000002807D105494FF080500860BFF34F8FDA
:10419000BFF36F8F10BD00002400002404ED00E089
:1041A00010B586B0002405AA04A9039403A80494BA
:1041B000FFF71AFFDDE9030100940023CDE90110A8
:1041C00010480EA1059A00F0FEF80F490028C862B9
:1041D00011D0502080F31188BFF34F8FBFF36F8F42
:1041E00001224FF0FF3088624A61CC6006B0BDE822
:1041F000104000F041B806B010BD000049444C45E5
:1042000000000000253D0008240000240248016B46
:10421000491C016370470000240000241448016B0E
:1042200011B10121C16170470021C16111490269C9
:10423000B2FA82F2C2F11F0202EB820251F822307E
:104240006BB101EB820101F108034A6852684A60D0
:104250009A4201D152684A60D1680160704750208B
:1042600080F31188BFF34F8FBFF36F8FFEE700001D
:10427000240000245C04002437481CB53749026838
:104280008A4207D1502080F31188BFF34F8FBFF3CC
:104290006F8FFEE731490068491E884207D15020E0
:1042A00080F31188BFF34F8FBFF36F8FFEE72C4968
:1042B000FF200A780192087008788DF800009DF8B8
:1042C00000209DF8000002F0F002824207D050204A
:1042D00080F31188BFF34F8FBFF36F8FFEE79DF818
:1042E000002007201F4C02F050022270A06005E061
:1042F0009DF8002052008DF80020401E9DF80020FF
:104300001206F5D40328A06007D0502080F311884E
:10431000BFF34F8FBFF36F8FFEE74FF44070A06085
:10432000019808700C482030016841F47001016068
:10433000016841F070410160FFF7FAFE0020606003
:10434000FBF7D8FF0848016841F040410160FBF7E6
:10435000BDFF00201CBD000000ED00E071C20F4158
:1043600000E400E08000002434EF00E02DE9FF5F6E
:10437000994616468A4683469000DDE90E87FFF788
:1043800099FD05001CD05420FFF794FD040014D0C3
:104390000020256384F851004B46CDE90087CDE924
:1043A0000240324651465846FFF7ECFC2046FFF7E4
:1043B0000FFC012004B0BDE8F09F2846FFF786FE01
:1043C0004FF0FF30F6E7F0B585B0DDE90B740A9DDC
:1043D000A7B1DCB154262763022684F85160002778
:1043E00003970DF1100C0095CDE901C4FFF7CAFC4D
:1043F0002046FFF7EDFB049805B0F0BD502080F398
:104400001188BFF34F8FBFF36F8FFEE7502080F30B
:104410001188BFF34F8FBFF36F8FFEE72DE9F04197
:104420002F4C206B002728B1A069401CA0613846A2
:10443000BDE8F081E668761CE66013D1606B006829
:1044400038B1502080F31188BFF34F8FBFF36F8FC7
:10445000FEE7606BA16B6163A063206A401C206271
:10446000FFF704FDDFF87C80A06A864209D3606B09
:104470000068A0B1606BC068C5686868864211D2E8
:10448000A0622068C06A00EB800158F82100012872
:1044900000D90127E0690028C9D00127C7E74FF0FC
:1044A000FF30EDE7281DFFF78BFDA86A18B105F175
:1044B0001800FFF785FDE96A012022698840104352
:1044C000206101EB810108EB8100291DFFF7BEFD92
:1044D0002068E96AC06A8142C9D30127C7E70000A2
:1044E000240000245C0400242DE9F0472C4D286BA7
:1044F0000024264638B1FFF7B5FD286B401E28631F
:10450000286B40B147E0502080F31188BFF34F8FF4
:10451000BFF36F8FFEE7234F0120A968D9B3A7F13E
:10452000B40980463868E8B1F868C46804F1180036
:10453000FFF746FD201DFFF743FDE16A2A6908FAEF
:1045400001F01043286101EB810109EB8100211D7D
:10455000FFF77CFD2968E06AC96A8842E2D3C5F8A2
:104560001C80DFE70CB1FFF781FCAC6944B1474622
:10457000FFF754FF00B1EF61641EF9D10020A8617C
:10458000E86940B1084901264FF080500860BFF348
:104590004F8FBFF36F8FFFF785FD3046BDE8F08783
:1045A000240000241005002404ED00E0504600081B
:1045B000F928000800000000000000008000000052
:1045C0000000000000000000384600080129000833
:1045D000FDFF00000000000080000000000000005F
:1045E0000000000044460008912E0008FDFF000076
:1045F000000000008000000000000000000000003B
:104600000000000001020304010203040607080978
:10461000010002000400060008000A000C0010005F
:10462000200040008000000101010103070100009B
:1046300008040204080101016D795461736B303282
:10464000000000006D795461736B3033000000008E
:1046500064656661756C745461736B007C46000818
:104660000000002490000000A63700080C47000856
:1046700090000024C0440000B6370008000000008D
:104680000000000000000000000000000090D003C7
:104690000090D003010000001000000000000000A6
:1046A000000000000000000000000000000000000A
:1046B00000000000000000000000000000000000FA
:1046C00000000000000000000000000000000000EA
:1046D00000000000000000000000000000000000DA
:1046E00000000000000000000000000000000000CA
:1046F00000000000000000000000000000000000BA
:0C470000AAAAAAAA000000000000000005
:040000050800029954
:00000001FF
